:0B0A6200554245484C4F2025697300A9
:08098800020E0001020800004C
:03002B0002038A43
:10038A00C0E0C0F0C083C082C0D075D000C000C039
:0D039A0001C002C003C004C005C006C007BA
:1003A700752200752300C3E5099409E50864809464
:1003B70080400BE5092401FFE43508FE80047E0038
:1003C7007F008E088F09E509450860030204A2FF34
:1003D700FE7D80FCAB0DAA0CA90BA80AC31204BDB5
:1003E7007007F50E750F018018E47F01FEFDFCAB69
:1003F7000DAA0CA90BA80AC31204BD7004F50EF5CB
:100407000FE50F450EAF0DAE0CAD0BAC0A780170C2
:10041700051204E780031204D38F0D8E0C8D0B8C0D
:100427000A90A003E50DF0FFAE0CAD0BAC0A7808FF
:100437001204D3A3EFF0A3E4F0F522F523AF0DAE3A
:100447000CAD0BAC0A78101204D3C004C005C0066B
:10045700C007E47F01FEFDFCA923A8011204E7D031
:1004670003D002D001D000EF5BFFEE5AFEED59FD3D
:10047700EC58FC4D4E4F6015C374089523FF74016B
:10048700A807088002C333D8FC90A005F00523E530
:0B04970023700205226408452270A2B9
:1004A200D007D006D005D004D003D002D001D000AE
:0B04B200D0D0D082D083D0F0D0E03258
:1008E0007510007511B17510007511477BFFE4F5A7
:1008F0000DF50C750B80F50AC2AD90A003E50DF067
:10090000E4A3F0A3F0C2CAD2AFC2C9D2CAAF118F5A
:10091000CB8BCA8FCD8BCC75C901D2CAD2AD80FE2C
:100A1F00E4F524F525120956120A6D120A76120909
:030A2F00F480FB55
:1009F400E4F526F527F528F529120A6D1205881263
:070A0400064D12076980F5A1
:0D0A5500E4FDFC1208E00DBD00010C80F96D
:10000300E4F512F513120A6D7BFF7A0A7962051380
:10001300E5138512317002051214F5321200907F38
:08002300647E001209D380DDA8
:030990000118004B
:0709B2007F30120A0B7FE801
:1009B900E4FDFCC3ED9FEC9E500FC2B5C291D2B4C9
:0909C900D2900DBD00010C80EA82
:0109D2002202
:100A4500C291D2B4D290C2B5D2B52090F9C2B52226
:100A0B00D2B4909000EFF0C291C2B4C2B5D2B5C2CD
:040A1B00B5020A45D1
:090A6D007F01120A0BE4F51822C6
:10092000ED14601114601714601D24037020AE07CD
:10093000E4F5188019EF2440FE7518018010EF24AB
:1009400014FE7518028007EF2454FE751803430641
:0609500080AF06020A0B55
:1007F400AE07EE640A7037E51814601414601B1415
:1008040060222403703A7FC0120A0B7518018030ED
:100814007F94120A0B75180280267FD4120A0B7576
:100824001803801C7F80120A0BE4F5188012909044
:1008340000EEF0D291C2B4C2B5D2B5C2B5120A4527
:03084400AF0622DA
:10095600C2B5C291D2B4D2907F30120A0B7FE87E24
:10096600031209B91209B21209B27F38120A0B7FB3
:1009760006120A0B7F0C120A0BE4FDFF1209200275
:020986000A6DF8
:030A7D00256300EE
:100993005000803132334134353642373839432AB7
:0A09A30030234444005C796272675F
:070A76009080037490F02250
:10058800E4F52AF52BFDFCF52AF52BAF2B7401A811
:1005980007088002C333D8FCF4908002F07F017E04
:1005A800001209D3E4FCFDAF0574017E00A807081A
:1005B8008005C333CE33CED8F9FF908000E0F4FB3A
:1005C800E4F45EFEEF5B4E602EED25E0FBEC33FAC3
:1005D800E52BAE2A7803C333CE33CED8F92460F5A1
:1005E8008274003EF583E5822BF582E5833AF58334
:1005F800E4F0A304F0802BED25E0FBEC33FAE52BC7
:10060800AE2A7803C333CE33CED8F92460F582748A
:10061800003EF583E5822BF582E5833AF583E4F025
:10062800A3F00DBD00010CED64044C60030205AF9E
:10063800052BE52B7002052AC39404E52A94005083
:040648000302059311
:01064C00228B
:10064D00E4F52AF52BF52AF52BE52B2404FF74018F
:10065D00A807088002C333D8FCF4908002F07F0114
:10066D007E001209D3E52B2404FF74017E00A80738
:10067D00088005C333CE33CED8F9FF908000E0F467
:10068D00FDE4F45EFEEF5D4E601AE52B25E0FFE51F
:10069D002A33FE74542FF58274003EF583E4F0A3E3
:1006AD0004F08017E52B25E0FFE52A33FE74542F67
:1006BD00F58274003EF583E4F0A3F0052BE52B7075
:0F06CD0002052AC39404E52A940050030206563E
:0106DC0022FB
:10076900E4F52AF52BF52CF52DF52AF52BE4F52CD6
:10077900F52DE52D25E0FDE52C33FCE52BAE2A789A
:1007890003C333CE33CED8F92460F58274003EF525
:1007990083E5822DF582E5833CF583E0FEA3E04EF7
:1007A90060267BFF7A0A797DE52B25E025E0248008
:1007B900F582E43400F583E582252DF582E435835D
:1007C900F583E0F531120090052DE52D7002052C19
:1007D900C39404E52C94004099052BE52B70020580
:0A07E9002AC39404E52A940040831B
:0107F30022E3
:10089400E4F514F515F514F515E51525E0FFE51453
:1008A40033FE74542FF58274003EF583E0FEA3E01A
:1008B4004E60177BFF7A0A797D745C2515F582E416
:1008C4003400F583E0F5311200900515E51570024A
:0B08D4000514C39404E514940040BE1A
:0108DF0022F6
:0409AD00021600002E
:100A3200438901AF89EF54FDFFE48F89F58CF58A74
:030A4200D28C2231
:10084700AD07AC06E51745167003120A32E4F58CBE
:10085700F58AD28CD3ED9400EC9400402FAF8CAB8B
:100867008AEB2FFFE433FEEFC4F8540FC868FFEE9E
:10087700C454F048FEC3EF942EEE6480948040DDAC
:0D088700E4F58CF58AED1D70CB1C80C822B5
:1009D3008F828E83D3E5829400E583940040117F58
:1009E300C87E00120847E582158270E8158380E40B
:0109F30022E1
:030000000206DD18
:0C06DD00787FE4F6D8FD75814102072407
:1004BD00EB9FF5F0EA9E42F0E99D42F0EC6480C8B6
:0604CD0064809845F02256
:1004D300E86010ECA2E713FCED13FDEE13FEEF133F
:0404E300FFD8F0222C
:1004E700E8600FEFC333FFEE33FEED33FDEC33FC73
:0304F700D8F12217
:10002E00E53D2431F8E6053D22782E300702783181
:10003E00E475F0011205520204FA2000EB7F2ED275
:10004E00008018EF540F2490D43440D4FF30040BAA
:10005E00EF24BFB41A0050032461FFE53E60021581
:10006E003E0541E5417002054030070D782EE475DE
:10007E00F001120552EF0205400207F47403D20795
:10008E008003E4C207F53D8B2E8A2F8930E4F53EBE
:10009E00F540F541E53E60077F2012006980F57559
:1000AE003FFFC201C200C202C203C205C206C2089D
:1000BE00120037FF700D3007057F0012007AAF4136
:1000CE00AE4022B4255FC2D5C204120037FF24D041
:1000DE00B40A00501A75F00A783E30D50508B6FFFE
:1000EE000106C6A426F620D5047002D20380D924B8
:1000FE00CFB41A00EF5004C2E5D20402027AD20144
:10010E0080C6D20080C0D20280BCD2D580BAD205C1
:10011E0080B47F201200692002077401B53E0040B2
:10012E00F112002EFF1200690200A2D208D2068040
:10013E009512002EFB12002EFA12002EF94A4B7069
:10014E0006794B7A037BFF20022EE53E602A7E0065
:10015E008E8275830012051360060EEE653F70F0F9
:10016E00C2D5EBC0E0EAC0E0E9C0E0EE1202C1D0B9
:10017E00E0F9D0E0FAD0E0FB1204FAFF60AAEBC07F
:10018E00E0EAC0E0E9C0E0120069D0E02401F9D055
:10019E00E03400FAD0E0FBE53F0460DCD53FD980C7
:1001AE00877BFF7A0279BDD202809C79108002791A
:1001BE0008C206C2088008D2D5790A8004790AC21C
:1001CE00D5E53F047002F53FE4FAFDFEFF12002E66
:1001DE00FC7B0820011312002EFD7B1030000A124A
:1001EE00002EFE12002EFF7B20EC3382D592D550CE
:1001FE0013C3E43000069FFFE49EFEE42001039D3E
:10020E00FDE49CFCE4CBF8C201EC700CCFCECDCC5F
:10021E00E824F8F870F38017C3EF33FFEE33FEEDEA
:10022E0033FDEC33FCEB33FB994002FB0FD8E9EBCB
:10023E00300105F8D0E0C448B201C0E00AEC4D4EE2
:10024E004F78207B0070C2EAB53F0040BCC0E01280
:10025E0002C3D0F0D0E0200104C4C0E0C4B201C09B
:10026E00F0120052D0F0D5F0EB0200A2120562019E
:10027E003F5301B95801104C010C4201BD4F01C54D
:0F028E004401C54901254301CB5501AF4601AFDE
:10029D004501AF47036B5001142D01182E013B2B67
:1002AD00011C2301392003592A00D44800000133D1
:1002BD003F3F3F00790AA2D5200314300509B9103C
:1002CD00020404B9080104A2D5200602500104203D
:1002DD0002689202B53E005034C0E07F2030031911
:1002ED007F30A20272067205500F12031AC202C2AB
:1002FD0006C205C2087F30800F300503E9C0E01249
:10030D000069300503D0E0F9D0E0B53ECC300517DB
:10031D007F30B9100C1200697F583004077F788048
:10032D0003B908031200693002057F2D0200697FB1
:10033D00202008F87F2B2006F322920280CF286E12
:10034D00756C6C29002D50434958D20112002E3086
:10035D0001F8C201783E30D50108F60200D4120032
:10036D002E2403B405004001E49003529312005A69
:0D037D00743A12005AD203753E040201B911
:1006E900020A1FE493A3F8E493A34003F68001F2FE
:1006F90008DFF48029E493A3F85407240CC8C33312
:10070900C4540F4420C8834004F456800146F6DFE0
:10071900E4800B0102040810204080900988E47EDF
:10072900019360BCA3FF543F30E509541FFEE493D5
:10073900A360010ECF54C025E060A840B8E493A39C
:10074900FAE493A3F8E493A3C8C582C8CAC583CAC7
:10075900F0A3C8C582C8CAC583CADFE9DEE780BE7F
:0109B1000045
:1004FA00BB010689828A83E0225002E722BBFE0200
:09050A00E32289828A83E4932232
:10051300BB010CE58229F582E5833AF583E022509D
:1005230006E92582F8E622BBFE06E92582F8E222E7
:0D053300E58229F582E5833AF583E4932201
:10054000BB010689828A83F0225002F722BBFE019A
:02055000F32294
:10055200FAE6FB0808E6F925F0F618E6CA3AF622AA
:10056200D083D082F8E4937012740193700DA3A328
:1005720093F8740193F5828883E47374029368603C
:06058200EFA3A3A380DF3C
:00000001FF
