:0B0B1800554245484C4F2025697300F2
:0809D0000218000102120000F0
:03002B0002038A43
:10038A00C0E0C0F0C083C082C0D075D000C000C039
:0D039A0001C002C003C004C005C006C007BA
:1003A700752200752300C3E5139409E51264809450
:1003B70080400BE5132401FFE43512FE80047E0024
:1003C7007F008E128F13E513451260030204A2FF0C
:1003D700FE7D80FCAB17AA16A915A814C31204BD8D
:1003E7007007F5187519018018E47F01FEFDFCAB55
:1003F70017AA16A915A814C31204BD7004F518F599
:1004070019E5194518AF17AE16AD15AC147801707C
:10041700051204F880031204E48F178E168D158CCD
:100427001490A003E517F0FFAE16AD15AC147808CD
:100437001204E4A3EFF0A3E4F0F522F523AF17AE1F
:1004470016AD15AC1478101204E4C004C005C0063C
:10045700C007E47F01FEFDFCA923A8011204F8D020
:1004670003D002D001D000EF5BFFEE5AFEED59FD3D
:10047700EC58FC4D4E4F6015C374089523FF74016B
:10048700A807088002C333D8FC90A005F00523E530
:0B04970023700205226408452270A2B9
:1004A200D007D006D005D004D003D002D001D000AE
:0B04B200D0D0D082D083D0F0D0E03258
:1008F100751E00751FB1751E00751F477BFFE4F55E
:1009010017F516751580F514C2AD90A003E517F023
:10091100E4A3F0A3F0C2CAD2AFC2C9D2CAAF1F8F3B
:10092100CB8BCA8FCD8BCC75C901D2CAD2AD80FE1B
:100AD500E4F524F52512099E120B23120B2C120A9C
:030AE5009480FBFF
:100A9400E4F526F527F528F529120B2312059912FA
:070AA400065E12077A80F5DF
:0D0B0B00E4FDFC1208F10DBD00010C80F9A5
:10000300E4F54AF54B120B237BFF7A0B7918054B6A
:10001300E54B854A317002054A14F5321200907F90
:08002300647E00120A1B80DD5F
:0309D800014E00CD
:0709FA007F30120AC17FE803
:100A0100E4FDFCC3ED9FEC9E500FC2B5C291D2B480
:090A1100D2900DBD00010C80EA39
:010A1A0022B9
:100AFB00C291D2B4D290C2B5D2B52090F9C2B52270
:100AC100D2B4909000EFF0C291C2B4C2B5D2B5C217
:040AD100B5020AFB65
:090B23007F01120AC1E4F54E2223
:10096800ED14601114601714601D24037020AE0785
:10097800E4F54E8019EF2440FE754E018010EF24F7
:1009880014FE754E028007EF2454FE754E0343068D
:0609980080AF06020AC157
:10080500AE07EE640A7037E54E14601414601B14CD
:1008150060222403703A7FC0120AC1754E018030F0
:100825007F94120AC1754E0280267FD4120AC175C3
:100835004E03801C7F80120AC1E4F54E8012909011
:1008450000EEF0D291C2B4C2B5D2B5C2B5120AFB60
:03085500AF0622C9
:10099E00C2B5C291D2B4D2907F30120AC17FE87E26
:1009AE0003120A011209FA1209FA7F38120AC17FDC
:1009BE0006120AC17F0C120AC1E4FDFF1209680279
:0209CE000B23F9
:030B330025630037
:1009DB0050002C3132334134353642373839432AC3
:0A09EB00302344440008796272676B
:070B2C009080037490F02299
:10059900E4F52AF52BFDFCF52AF52BAF2B7401A800
:1005A90007088002C333D8FCF4908002F07F017EF3
:1005B90000120A1BE4FCFDAF0574017E00A80708C0
:1005C9008005C333CE33CED8F9FF908000E0F4FB29
:1005D900E4F45EFEEF5B4E602EED25E0FBEC33FAB2
:1005E900E52BAE2A7803C333CE33CED8F9240CF5E4
:1005F9008274003EF583E5822BF582E5833AF58323
:10060900E4F0A304F0802BED25E0FBEC33FAE52BB5
:10061900AE2A7803C333CE33CED8F9240CF58274CD
:10062900003EF583E5822BF582E5833AF583E4F014
:10063900A3F00DBD00010CED64044C60030205C07C
:10064900052BE52B7002052AC39404E52A94005072
:04065900030205A4EF
:01065D00227A
:10065E00E4F52AF52BF52AF52BE52B2404FF74017E
:10066E00A807088002C333D8FCF4908002F07F0103
:10067E007E00120A1BE52B2404FF74017E00A807DE
:10068E00088005C333CE33CED8F9FF908000E0F456
:10069E00FDE4F45EFEEF5D4E601AE52B25E0FFE50E
:1006AE002A33FE74002FF58274003EF583E4F0A326
:1006BE0004F08017E52B25E0FFE52A33FE74002FAA
:1006CE00F58274003EF583E4F0A3F0052BE52B7064
:0F06DE0002052AC39404E52A940050030206671C
:0106ED0022EA
:10077A00E4F52AF52BF52CF52DF52AF52BE4F52CC5
:10078A00F52DE52D25E0FDE52C33FCE52BAE2A7889
:10079A0003C333CE33CED8F9240CF58274003EF568
:1007AA0083E5822DF582E5833CF583E0FEA3E04EE6
:1007BA0060267BFF7A0B7933E52B25E025E0242C94
:1007CA00F582E43400F583E582252DF582E435834C
:1007DA00F583E0F531120090052DE52D7002052C08
:1007EA00C39404E52C94004099052BE52B7002056F
:0A07FA002AC39404E52A940040830A
:0108040022D1
:1008A500E4F54CF54DF54CF54DE54D25E0FFE54CF2
:1008B50033FE74002FF58274003EF583E0FEA3E05D
:1008C5004E60177BFF7A0B79337408254DF582E46A
:1008D5003400F583E0F531120090054DE54D7002C9
:0B08E500054CC39404E54C940040BE99
:0108F00022E5
:0409F50002080000F4
:100AE800438901AF89EF54FDFFE48F89F58CF58ABE
:030AF800D28C227B
:100A7B00AF0DAE0CAD0BAC0A8F118E108D0F8C0E13
:090A8B00AF11AE10AD0FAC0E224C
:100AAB00C3E50D9511FFE50C9510FEE50B950FFDBC
:060ABB00E50A950EFC2285
:100A5D008F1D8E1C8D1B8C1AC3E50D951DFFE50C8E
:0E0A6D00951CFEE50B951BFDE50A951AFC2273
:080931008F458E448D438C427A
:10093900E50D2545F549E50C3544F548E50B354305
:10094900F547E50A3542F546AF0DAE0CAD0BAC0ADD
:0E095900AB49AA48A947A846D31204D350EAD6
:01096700226D
:10085800AD07AC06E50945087003120AE8E4F58C13
:10086800F58AD28CD3ED9400EC9400402FAF8CAB7A
:100878008AEB2FFFE433FEEFC4F8540FC868FFEE8D
:10088800C454F048FEC3EF942EEE6480948040DD9B
:0D089800E4F58CF58AED1D70CB1C80C822A4
:100A1B008F828E83D3E5829400E583940040117F0F
:100A2B00C87E00120858E582158270E8158380E4B1
:010A3B002298
:100A3C008F828E83D3E5829400E583940040117FEE
:100A4C00C87E00120858E582158270E8158380E490
:010A5C002277
:030000000206EE07
:0C06EE00787FE4F6D8FD75814E020735D8
:1004BD00EB9FF5F0EA9E42F0E99D42F0EC6480C8B6
:0604CD0064809845F02256
:1004D300EB9FF5F0EA9E42F0E99D42F0E89C45F07F
:0104E30022F6
:1004E400E86010ECA2E713FCED13FDEE13FEEF132E
:0404F400FFD8F0221B
:1004F800E8600FEFC333FFEE33FEED33FDEC33FC62
:03050800D8F12205
:10002E00E53D2431F8E6053D22782E300702783181
:10003E00E475F00112056302050B2000EB7F2ED252
:10004E00008018EF540F2490D43440D4FF30040BAA
:10005E00EF24BFB41A0050032461FFE53E60021581
:10006E003E0541E5417002054030070D782EE475DE
:10007E00F001120563EF0205510208057403D20761
:10008E008003E4C207F53D8B2E8A2F8930E4F53EBE
:10009E00F540F541E53E60077F2012006980F57559
:1000AE003FFFC201C200C202C203C205C206C2089D
:1000BE00120037FF700D3007057F0012007AAF4136
:1000CE00AE4022B4255FC2D5C204120037FF24D041
:1000DE00B40A00501A75F00A783E30D50508B6FFFE
:1000EE000106C6A426F620D5047002D20380D924B8
:1000FE00CFB41A00EF5004C2E5D20402027AD20144
:10010E0080C6D20080C0D20280BCD2D580BAD205C1
:10011E0080B47F201200692002077401B53E0040B2
:10012E00F112002EFF1200690200A2D208D2068040
:10013E009512002EFB12002EFA12002EF94A4B7069
:10014E0006794B7A037BFF20022EE53E602A7E0065
:10015E008E8275830012052460060EEE653F70F0E8
:10016E00C2D5EBC0E0EAC0E0E9C0E0EE1202C1D0B9
:10017E00E0F9D0E0FAD0E0FB12050BFF60AAEBC06D
:10018E00E0EAC0E0E9C0E0120069D0E02401F9D055
:10019E00E03400FAD0E0FBE53F0460DCD53FD980C7
:1001AE00877BFF7A0279BDD202809C79108002791A
:1001BE0008C206C2088008D2D5790A8004790AC21C
:1001CE00D5E53F047002F53FE4FAFDFEFF12002E66
:1001DE00FC7B0820011312002EFD7B1030000A124A
:1001EE00002EFE12002EFF7B20EC3382D592D550CE
:1001FE0013C3E43000069FFFE49EFEE42001039D3E
:10020E00FDE49CFCE4CBF8C201EC700CCFCECDCC5F
:10021E00E824F8F870F38017C3EF33FFEE33FEEDEA
:10022E0033FDEC33FCEB33FB994002FB0FD8E9EBCB
:10023E00300105F8D0E0C448B201C0E00AEC4D4EE2
:10024E004F78207B0070C2EAB53F0040BCC0E01280
:10025E0002C3D0F0D0E0200104C4C0E0C4B201C09B
:10026E00F0120052D0F0D5F0EB0200A2120573018D
:10027E003F5301B95801104C010C4201BD4F01C54D
:0F028E004401C54901254301CB5501AF4601AFDE
:10029D004501AF47036B5001142D01182E013B2B67
:1002AD00011C2301392003592A00D44800000133D1
:1002BD003F3F3F00790AA2D5200314300509B9103C
:1002CD00020404B9080104A2D5200602500104203D
:1002DD0002689202B53E005034C0E07F2030031911
:1002ED007F30A20272067205500F12031AC202C2AB
:1002FD0006C205C2087F30800F300503E9C0E01249
:10030D000069300503D0E0F9D0E0B53ECC300517DB
:10031D007F30B9100C1200697F583004077F788048
:10032D0003B908031200693002057F2D0200697FB1
:10033D00202008F87F2B2006F322920280CF286E12
:10034D00756C6C29002D50434958D20112002E3086
:10035D0001F8C201783E30D50108F60200D4120032
:10036D002E2403B405004001E49003529312005A69
:0D037D00743A12005AD203753E040201B911
:1006FA00020AD5E493A3F8E493A34003F68001F237
:10070A0008DFF48029E493A3F85407240CC8C33300
:10071A00C4540F4420C8834004F456800146F6DFCF
:10072A00E4800B01020408102040809009D0E47E86
:10073A00019360BCA3FF543F30E509541FFEE493C4
:10074A00A360010ECF54C025E060A840B8E493A38B
:10075A00FAE493A3F8E493A3C8C582C8CAC583CAB6
:10076A00F0A3C8C582C8CAC583CADFE9DEE780BE6E
:0109F90000FD
:10050B00BB010689828A83E0225002E722BBFE02EE
:09051B00E32289828A83E4932221
:10052400BB010CE58229F582E5833AF583E022508C
:1005340006E92582F8E622BBFE06E92582F8E222D6
:0D054400E58229F582E5833AF583E49322F0
:10055100BB010689828A83F0225002F722BBFE0189
:02056100F32283
:10056300FAE6FB0808E6F925F0F618E6CA3AF62299
:10057300D083D082F8E4937012740193700DA3A317
:1005830093F8740193F5828883E47374029368602B
:06059300EFA3A3A380DF2B
:00000001FF
